{
  "_format": "hh-sol-artifact-1",
  "contractName": "Artwork",
  "sourceName": "contracts/Artwork.sol",
  "abi": [
    {
      "inputs": [
        {
          "internalType": "string",
          "name": "name",
          "type": "string"
        },
        {
          "internalType": "string",
          "name": "symbol",
          "type": "string"
        }
      ],
      "stateMutability": "nonpayable",
      "type": "constructor"
    },
    {
      "anonymous": false,
      "inputs": [
        {
          "indexed": true,
          "internalType": "address",
          "name": "owner",
          "type": "address"
        },
        {
          "indexed": true,
          "internalType": "address",
          "name": "approved",
          "type": "address"
        },
        {
          "indexed": true,
          "internalType": "uint256",
          "name": "tokenId",
          "type": "uint256"
        }
      ],
      "name": "Approval",
      "type": "event"
    },
    {
      "anonymous": false,
      "inputs": [
        {
          "indexed": true,
          "internalType": "address",
          "name": "owner",
          "type": "address"
        },
        {
          "indexed": true,
          "internalType": "address",
          "name": "operator",
          "type": "address"
        },
        {
          "indexed": false,
          "internalType": "bool",
          "name": "approved",
          "type": "bool"
        }
      ],
      "name": "ApprovalForAll",
      "type": "event"
    },
    {
      "anonymous": false,
      "inputs": [
        {
          "indexed": true,
          "internalType": "address",
          "name": "from",
          "type": "address"
        },
        {
          "indexed": true,
          "internalType": "address",
          "name": "to",
          "type": "address"
        },
        {
          "indexed": true,
          "internalType": "uint256",
          "name": "tokenId",
          "type": "uint256"
        }
      ],
      "name": "Transfer",
      "type": "event"
    },
    {
      "inputs": [
        {
          "internalType": "address",
          "name": "to",
          "type": "address"
        },
        {
          "internalType": "uint256",
          "name": "tokenId",
          "type": "uint256"
        }
      ],
      "name": "approve",
      "outputs": [],
      "stateMutability": "nonpayable",
      "type": "function"
    },
    {
      "inputs": [
        {
          "internalType": "address",
          "name": "owner",
          "type": "address"
        }
      ],
      "name": "balanceOf",
      "outputs": [
        {
          "internalType": "uint256",
          "name": "",
          "type": "uint256"
        }
      ],
      "stateMutability": "view",
      "type": "function"
    },
    {
      "inputs": [
        {
          "internalType": "uint256",
          "name": "tokenId",
          "type": "uint256"
        }
      ],
      "name": "getApproved",
      "outputs": [
        {
          "internalType": "address",
          "name": "",
          "type": "address"
        }
      ],
      "stateMutability": "view",
      "type": "function"
    },
    {
      "inputs": [
        {
          "internalType": "address",
          "name": "owner",
          "type": "address"
        },
        {
          "internalType": "address",
          "name": "operator",
          "type": "address"
        }
      ],
      "name": "isApprovedForAll",
      "outputs": [
        {
          "internalType": "bool",
          "name": "",
          "type": "bool"
        }
      ],
      "stateMutability": "view",
      "type": "function"
    },
    {
      "inputs": [
        {
          "internalType": "string",
          "name": "_tokenURI",
          "type": "string"
        }
      ],
      "name": "mint",
      "outputs": [],
      "stateMutability": "nonpayable",
      "type": "function"
    },
    {
      "inputs": [],
      "name": "name",
      "outputs": [
        {
          "internalType": "string",
          "name": "",
          "type": "string"
        }
      ],
      "stateMutability": "view",
      "type": "function"
    },
    {
      "inputs": [
        {
          "internalType": "uint256",
          "name": "tokenId",
          "type": "uint256"
        }
      ],
      "name": "ownerOf",
      "outputs": [
        {
          "internalType": "address",
          "name": "",
          "type": "address"
        }
      ],
      "stateMutability": "view",
      "type": "function"
    },
    {
      "inputs": [
        {
          "internalType": "address",
          "name": "from",
          "type": "address"
        },
        {
          "internalType": "address",
          "name": "to",
          "type": "address"
        },
        {
          "internalType": "uint256",
          "name": "tokenId",
          "type": "uint256"
        }
      ],
      "name": "safeTransferFrom",
      "outputs": [],
      "stateMutability": "nonpayable",
      "type": "function"
    },
    {
      "inputs": [
        {
          "internalType": "address",
          "name": "from",
          "type": "address"
        },
        {
          "internalType": "address",
          "name": "to",
          "type": "address"
        },
        {
          "internalType": "uint256",
          "name": "tokenId",
          "type": "uint256"
        },
        {
          "internalType": "bytes",
          "name": "data",
          "type": "bytes"
        }
      ],
      "name": "safeTransferFrom",
      "outputs": [],
      "stateMutability": "nonpayable",
      "type": "function"
    },
    {
      "inputs": [
        {
          "internalType": "address",
          "name": "operator",
          "type": "address"
        },
        {
          "internalType": "bool",
          "name": "approved",
          "type": "bool"
        }
      ],
      "name": "setApprovalForAll",
      "outputs": [],
      "stateMutability": "nonpayable",
      "type": "function"
    },
    {
      "inputs": [
        {
          "internalType": "bytes4",
          "name": "interfaceId",
          "type": "bytes4"
        }
      ],
      "name": "supportsInterface",
      "outputs": [
        {
          "internalType": "bool",
          "name": "",
          "type": "bool"
        }
      ],
      "stateMutability": "view",
      "type": "function"
    },
    {
      "inputs": [],
      "name": "symbol",
      "outputs": [
        {
          "internalType": "string",
          "name": "",
          "type": "string"
        }
      ],
      "stateMutability": "view",
      "type": "function"
    },
    {
      "inputs": [],
      "name": "tokenCounter",
      "outputs": [
        {
          "internalType": "uint256",
          "name": "",
          "type": "uint256"
        }
      ],
      "stateMutability": "view",
      "type": "function"
    },
    {
      "inputs": [
        {
          "internalType": "uint256",
          "name": "_tokenId",
          "type": "uint256"
        }
      ],
      "name": "tokenURI",
      "outputs": [
        {
          "internalType": "string",
          "name": "",
          "type": "string"
        }
      ],
      "stateMutability": "view",
      "type": "function"
    },
    {
      "inputs": [
        {
          "internalType": "address",
          "name": "from",
          "type": "address"
        },
        {
          "internalType": "address",
          "name": "to",
          "type": "address"
        },
        {
          "internalType": "uint256",
          "name": "tokenId",
          "type": "uint256"
        }
      ],
      "name": "transferFrom",
      "outputs": [],
      "stateMutability": "nonpayable",
      "type": "function"
    }
  ],
  "bytecode": "0x60806040523480156200001157600080fd5b5060405162002af838038062002af883398181016040528101906200003791906200019f565b81818160009080519060200190620000519291906200007d565b5080600190805190602001906200006a9291906200007d565b5050506000600681905550505062000382565b8280546200008b90620002a7565b90600052602060002090601f016020900481019282620000af5760008555620000fb565b82601f10620000ca57805160ff1916838001178555620000fb565b82800160010185558215620000fb579182015b82811115620000fa578251825591602001919060010190620000dd565b5b5090506200010a91906200010e565b5090565b5b80821115620001295760008160009055506001016200010f565b5090565b6000620001446200013e846200023b565b62000212565b9050828152602081018484840111156200015d57600080fd5b6200016a84828562000271565b509392505050565b600082601f8301126200018457600080fd5b8151620001968482602086016200012d565b91505092915050565b60008060408385031215620001b357600080fd5b600083015167ffffffffffffffff811115620001ce57600080fd5b620001dc8582860162000172565b925050602083015167ffffffffffffffff811115620001fa57600080fd5b620002088582860162000172565b9150509250929050565b60006200021e62000231565b90506200022c8282620002dd565b919050565b6000604051905090565b600067ffffffffffffffff82111562000259576200025862000342565b5b620002648262000371565b9050602081019050919050565b60005b838110156200029157808201518184015260208101905062000274565b83811115620002a1576000848401525b50505050565b60006002820490506001821680620002c057607f821691505b60208210811415620002d757620002d662000313565b5b50919050565b620002e88262000371565b810181811067ffffffffffffffff821117156200030a576200030962000342565b5b80604052505050565b7f4e487b7100000000000000000000000000000000000000000000000000000000600052602260045260246000fd5b7f4e487b7100000000000000000000000000000000000000000000000000000000600052604160045260246000fd5b6000601f19601f8301169050919050565b61276680620003926000396000f3fe608060405234801561001057600080fd5b50600436106100f55760003560e01c806370a0823111610097578063c87b56dd11610066578063c87b56dd14610282578063d082e381146102b2578063d85d3d27146102d0578063e985e9c5146102ec576100f5565b806370a08231146101fc57806395d89b411461022c578063a22cb4651461024a578063b88d4fde14610266576100f5565b8063095ea7b3116100d3578063095ea7b31461017857806323b872dd1461019457806342842e0e146101b05780636352211e146101cc576100f5565b806301ffc9a7146100fa57806306fdde031461012a578063081812fc14610148575b600080fd5b610114600480360381019061010f9190611b31565b61031c565b6040516101219190611e97565b60405180910390f35b6101326103fe565b60405161013f9190611eb2565b60405180910390f35b610162600480360381019061015d9190611bc4565b610490565b60405161016f9190611e30565b60405180910390f35b610192600480360381019061018d9190611af5565b6104d6565b005b6101ae60048036038101906101a991906119ef565b6105ee565b005b6101ca60048036038101906101c591906119ef565b61064e565b005b6101e660048036038101906101e19190611bc4565b61066e565b6040516101f39190611e30565b60405180910390f35b6102166004803603810190610211919061198a565b6106f5565b6040516102239190612054565b60405180910390f35b6102346107ad565b6040516102419190611eb2565b60405180910390f35b610264600480360381019061025f9190611ab9565b61083f565b005b610280600480360381019061027b9190611a3e565b610855565b005b61029c60048036038101906102979190611bc4565b6108b7565b6040516102a99190611eb2565b60405180910390f35b6102ba6109a4565b6040516102c79190612054565b60405180910390f35b6102ea60048036038101906102e59190611b83565b6109aa565b005b610306600480360381019061030191906119b3565b6109dd565b6040516103139190611e97565b60405180910390f35b60007f80ac58cd000000000000000000000000000000000000000000000000000000007bffffffffffffffffffffffffffffffffffffffffffffffffffffffff1916827bffffffffffffffffffffffffffffffffffffffffffffffffffffffff191614806103e757507f5b5e139f000000000000000000000000000000000000000000000000000000007bffffffffffffffffffffffffffffffffffffffffffffffffffffffff1916827bffffffffffffffffffffffffffffffffffffffffffffffffffffffff1916145b806103f757506103f682610a71565b5b9050919050565b60606000805461040d9061226e565b80601f01602080910402602001604051908101604052809291908181526020018280546104399061226e565b80156104865780601f1061045b57610100808354040283529160200191610486565b820191906000526020600020905b81548152906001019060200180831161046957829003601f168201915b5050505050905090565b600061049b82610adb565b6004600083815260200190815260200160002060009054906101000a900473ffffffffffffffffffffffffffffffffffffffff169050919050565b60006104e18261066e565b90508073ffffffffffffffffffffffffffffffffffffffff168373ffffffffffffffffffffffffffffffffffffffff161415610552576040517f08c379a000000000000000000000000000000000000000000000000000000000815260040161054990612014565b60405180910390fd5b8073ffffffffffffffffffffffffffffffffffffffff16610571610b26565b73ffffffffffffffffffffffffffffffffffffffff1614806105a0575061059f8161059a610b26565b6109dd565b5b6105df576040517f08c379a00000000000000000000000000000000000000000000000000000000081526004016105d690612034565b60405180910390fd5b6105e98383610b2e565b505050565b6105ff6105f9610b26565b82610be7565b61063e576040517f08c379a000000000000000000000000000000000000000000000000000000000815260040161063590611ed4565b60405180910390fd5b610649838383610c7c565b505050565b61066983838360405180602001604052806000815250610855565b505050565b60008061067a83610f76565b9050600073ffffffffffffffffffffffffffffffffffffffff168173ffffffffffffffffffffffffffffffffffffffff1614156106ec576040517f08c379a00000000000000000000000000000000000000000000000000000000081526004016106e390611ff4565b60405180910390fd5b80915050919050565b60008073ffffffffffffffffffffffffffffffffffffffff168273ffffffffffffffffffffffffffffffffffffffff161415610766576040517f08c379a000000000000000000000000000000000000000000000000000000000815260040161075d90611f94565b60405180910390fd5b600360008373ffffffffffffffffffffffffffffffffffffffff1673ffffffffffffffffffffffffffffffffffffffff168152602001908152602001600020549050919050565b6060600180546107bc9061226e565b80601f01602080910402602001604051908101604052809291908181526020018280546107e89061226e565b80156108355780601f1061080a57610100808354040283529160200191610835565b820191906000526020600020905b81548152906001019060200180831161081857829003601f168201915b5050505050905090565b61085161084a610b26565b8383610fb3565b5050565b610866610860610b26565b83610be7565b6108a5576040517f08c379a000000000000000000000000000000000000000000000000000000000815260040161089c90611ed4565b60405180910390fd5b6108b184848484611120565b50505050565b60606108c28261117c565b610901576040517f08c379a00000000000000000000000000000000000000000000000000000000081526004016108f890611fd4565b60405180910390fd5b60076000838152602001908152602001600020805461091f9061226e565b80601f016020809104026020016040519081016040528092919081815260200182805461094b9061226e565b80156109985780601f1061096d57610100808354040283529160200191610998565b820191906000526020600020905b81548152906001019060200180831161097b57829003601f168201915b50505050509050919050565b60065481565b6109b6336006546111bd565b6109c2600654826111db565b600660008154809291906109d5906122d1565b919050555050565b6000600560008473ffffffffffffffffffffffffffffffffffffffff1673ffffffffffffffffffffffffffffffffffffffff16815260200190815260200160002060008373ffffffffffffffffffffffffffffffffffffffff1673ffffffffffffffffffffffffffffffffffffffff16815260200190815260200160002060009054906101000a900460ff16905092915050565b60007f01ffc9a7000000000000000000000000000000000000000000000000000000007bffffffffffffffffffffffffffffffffffffffffffffffffffffffff1916827bffffffffffffffffffffffffffffffffffffffffffffffffffffffff1916149050919050565b610ae48161117c565b610b23576040517f08c379a0000000000000000000000000000000000000000000000000000000008152600401610b1a90611ff4565b60405180910390fd5b50565b600033905090565b816004600083815260200190815260200160002060006101000a81548173ffffffffffffffffffffffffffffffffffffffff021916908373ffffffffffffffffffffffffffffffffffffffff160217905550808273ffffffffffffffffffffffffffffffffffffffff16610ba18361066e565b73ffffffffffffffffffffffffffffffffffffffff167f8c5be1e5ebec7d5bd14f71427d1e84f3dd0314c0f7b2291e5b200ac8c7c3b92560405160405180910390a45050565b600080610bf38361066e565b90508073ffffffffffffffffffffffffffffffffffffffff168473ffffffffffffffffffffffffffffffffffffffff161480610c355750610c3481856109dd565b5b80610c7357508373ffffffffffffffffffffffffffffffffffffffff16610c5b84610490565b73ffffffffffffffffffffffffffffffffffffffff16145b91505092915050565b8273ffffffffffffffffffffffffffffffffffffffff16610c9c8261066e565b73ffffffffffffffffffffffffffffffffffffffff1614610cf2576040517f08c379a0000000000000000000000000000000000000000000000000000000008152600401610ce990611f14565b60405180910390fd5b600073ffffffffffffffffffffffffffffffffffffffff168273ffffffffffffffffffffffffffffffffffffffff161415610d62576040517f08c379a0000000000000000000000000000000000000000000000000000000008152600401610d5990611f54565b60405180910390fd5b610d6f838383600161124f565b8273ffffffffffffffffffffffffffffffffffffffff16610d8f8261066e565b73ffffffffffffffffffffffffffffffffffffffff1614610de5576040517f08c379a0000000000000000000000000000000000000000000000000000000008152600401610ddc90611f14565b60405180910390fd5b6004600082815260200190815260200160002060006101000a81549073ffffffffffffffffffffffffffffffffffffffff02191690556001600360008573ffffffffffffffffffffffffffffffffffffffff1673ffffffffffffffffffffffffffffffffffffffff168152602001908152602001600020600082825403925050819055506001600360008473ffffffffffffffffffffffffffffffffffffffff1673ffffffffffffffffffffffffffffffffffffffff16815260200190815260200160002060008282540192505081905550816002600083815260200190815260200160002060006101000a81548173ffffffffffffffffffffffffffffffffffffffff021916908373ffffffffffffffffffffffffffffffffffffffff160217905550808273ffffffffffffffffffffffffffffffffffffffff168473ffffffffffffffffffffffffffffffffffffffff167fddf252ad1be2c89b69c2b068fc378daa952ba7f163c4a11628f55a4df523b3ef60405160405180910390a4610f718383836001611375565b505050565b60006002600083815260200190815260200160002060009054906101000a900473ffffffffffffffffffffffffffffffffffffffff169050919050565b8173ffffffffffffffffffffffffffffffffffffffff168373ffffffffffffffffffffffffffffffffffffffff161415611022576040517f08c379a000000000000000000000000000000000000000000000000000000000815260040161101990611f74565b60405180910390fd5b80600560008573ffffffffffffffffffffffffffffffffffffffff1673ffffffffffffffffffffffffffffffffffffffff16815260200190815260200160002060008473ffffffffffffffffffffffffffffffffffffffff1673ffffffffffffffffffffffffffffffffffffffff16815260200190815260200160002060006101000a81548160ff0219169083151502179055508173ffffffffffffffffffffffffffffffffffffffff168373ffffffffffffffffffffffffffffffffffffffff167f17307eab39ab6107e8899845ad3d59bd9653f200f220920489ca2b5937696c31836040516111139190611e97565b60405180910390a3505050565b61112b848484610c7c565b6111378484848461137b565b611176576040517f08c379a000000000000000000000000000000000000000000000000000000000815260040161116d90611ef4565b60405180910390fd5b50505050565b60008073ffffffffffffffffffffffffffffffffffffffff1661119e83610f76565b73ffffffffffffffffffffffffffffffffffffffff1614159050919050565b6111d7828260405180602001604052806000815250611512565b5050565b6111e48261117c565b611223576040517f08c379a000000000000000000000000000000000000000000000000000000000815260040161121a90611fd4565b60405180910390fd5b8060076000848152602001908152602001600020908051906020019061124a9291906117ae565b505050565b600181111561136f57600073ffffffffffffffffffffffffffffffffffffffff168473ffffffffffffffffffffffffffffffffffffffff16146112e35780600360008673ffffffffffffffffffffffffffffffffffffffff1673ffffffffffffffffffffffffffffffffffffffff16815260200190815260200160002060008282546112db9190612184565b925050819055505b600073ffffffffffffffffffffffffffffffffffffffff168373ffffffffffffffffffffffffffffffffffffffff161461136e5780600360008573ffffffffffffffffffffffffffffffffffffffff1673ffffffffffffffffffffffffffffffffffffffff1681526020019081526020016000206000828254611366919061212e565b925050819055505b5b50505050565b50505050565b600061139c8473ffffffffffffffffffffffffffffffffffffffff1661156d565b15611505578373ffffffffffffffffffffffffffffffffffffffff1663150b7a026113c5610b26565b8786866040518563ffffffff1660e01b81526004016113e79493929190611e4b565b602060405180830381600087803b15801561140157600080fd5b505af192505050801561143257506040513d601f19601f8201168201806040525081019061142f9190611b5a565b60015b6114b5573d8060008114611462576040519150601f19603f3d011682016040523d82523d6000602084013e611467565b606091505b506000815114156114ad576040517f08c379a00000000000000000000000000000000000000000000000000000000081526004016114a490611ef4565b60405180910390fd5b805181602001fd5b63150b7a0260e01b7bffffffffffffffffffffffffffffffffffffffffffffffffffffffff1916817bffffffffffffffffffffffffffffffffffffffffffffffffffffffff19161491505061150a565b600190505b949350505050565b61151c8383611590565b611529600084848461137b565b611568576040517f08c379a000000000000000000000000000000000000000000000000000000000815260040161155f90611ef4565b60405180910390fd5b505050565b6000808273ffffffffffffffffffffffffffffffffffffffff163b119050919050565b600073ffffffffffffffffffffffffffffffffffffffff168273ffffffffffffffffffffffffffffffffffffffff161415611600576040517f08c379a00000000000000000000000000000000000000000000000000000000081526004016115f790611fb4565b60405180910390fd5b6116098161117c565b15611649576040517f08c379a000000000000000000000000000000000000000000000000000000000815260040161164090611f34565b60405180910390fd5b61165760008383600161124f565b6116608161117c565b156116a0576040517f08c379a000000000000000000000000000000000000000000000000000000000815260040161169790611f34565b60405180910390fd5b6001600360008473ffffffffffffffffffffffffffffffffffffffff1673ffffffffffffffffffffffffffffffffffffffff16815260200190815260200160002060008282540192505081905550816002600083815260200190815260200160002060006101000a81548173ffffffffffffffffffffffffffffffffffffffff021916908373ffffffffffffffffffffffffffffffffffffffff160217905550808273ffffffffffffffffffffffffffffffffffffffff16600073ffffffffffffffffffffffffffffffffffffffff167fddf252ad1be2c89b69c2b068fc378daa952ba7f163c4a11628f55a4df523b3ef60405160405180910390a46117aa600083836001611375565b5050565b8280546117ba9061226e565b90600052602060002090601f0160209004810192826117dc5760008555611823565b82601f106117f557805160ff1916838001178555611823565b82800160010185558215611823579182015b82811115611822578251825591602001919060010190611807565b5b5090506118309190611834565b5090565b5b8082111561184d576000816000905550600101611835565b5090565b600061186461185f84612094565b61206f565b90508281526020810184848401111561187c57600080fd5b61188784828561222c565b509392505050565b60006118a261189d846120c5565b61206f565b9050828152602081018484840111156118ba57600080fd5b6118c584828561222c565b509392505050565b6000813590506118dc816126d4565b92915050565b6000813590506118f1816126eb565b92915050565b60008135905061190681612702565b92915050565b60008151905061191b81612702565b92915050565b600082601f83011261193257600080fd5b8135611942848260208601611851565b91505092915050565b600082601f83011261195c57600080fd5b813561196c84826020860161188f565b91505092915050565b60008135905061198481612719565b92915050565b60006020828403121561199c57600080fd5b60006119aa848285016118cd565b91505092915050565b600080604083850312156119c657600080fd5b60006119d4858286016118cd565b92505060206119e5858286016118cd565b9150509250929050565b600080600060608486031215611a0457600080fd5b6000611a12868287016118cd565b9350506020611a23868287016118cd565b9250506040611a3486828701611975565b9150509250925092565b60008060008060808587031215611a5457600080fd5b6000611a62878288016118cd565b9450506020611a73878288016118cd565b9350506040611a8487828801611975565b925050606085013567ffffffffffffffff811115611aa157600080fd5b611aad87828801611921565b91505092959194509250565b60008060408385031215611acc57600080fd5b6000611ada858286016118cd565b9250506020611aeb858286016118e2565b9150509250929050565b60008060408385031215611b0857600080fd5b6000611b16858286016118cd565b9250506020611b2785828601611975565b9150509250929050565b600060208284031215611b4357600080fd5b6000611b51848285016118f7565b91505092915050565b600060208284031215611b6c57600080fd5b6000611b7a8482850161190c565b91505092915050565b600060208284031215611b9557600080fd5b600082013567ffffffffffffffff811115611baf57600080fd5b611bbb8482850161194b565b91505092915050565b600060208284031215611bd657600080fd5b6000611be484828501611975565b91505092915050565b611bf6816121b8565b82525050565b611c05816121ca565b82525050565b6000611c16826120f6565b611c20818561210c565b9350611c3081856020860161223b565b611c39816123a7565b840191505092915050565b6000611c4f82612101565b611c59818561211d565b9350611c6981856020860161223b565b611c72816123a7565b840191505092915050565b6000611c8a602d8361211d565b9150611c95826123b8565b604082019050919050565b6000611cad60328361211d565b9150611cb882612407565b604082019050919050565b6000611cd060258361211d565b9150611cdb82612456565b604082019050919050565b6000611cf3601c8361211d565b9150611cfe826124a5565b602082019050919050565b6000611d1660248361211d565b9150611d21826124ce565b604082019050919050565b6000611d3960198361211d565b9150611d448261251d565b602082019050919050565b6000611d5c60298361211d565b9150611d6782612546565b604082019050919050565b6000611d7f60208361211d565b9150611d8a82612595565b602082019050919050565b6000611da2602c8361211d565b9150611dad826125be565b604082019050919050565b6000611dc560188361211d565b9150611dd08261260d565b602082019050919050565b6000611de860218361211d565b9150611df382612636565b604082019050919050565b6000611e0b603d8361211d565b9150611e1682612685565b604082019050919050565b611e2a81612222565b82525050565b6000602082019050611e456000830184611bed565b92915050565b6000608082019050611e606000830187611bed565b611e6d6020830186611bed565b611e7a6040830185611e21565b8181036060830152611e8c8184611c0b565b905095945050505050565b6000602082019050611eac6000830184611bfc565b92915050565b60006020820190508181036000830152611ecc8184611c44565b905092915050565b60006020820190508181036000830152611eed81611c7d565b9050919050565b60006020820190508181036000830152611f0d81611ca0565b9050919050565b60006020820190508181036000830152611f2d81611cc3565b9050919050565b60006020820190508181036000830152611f4d81611ce6565b9050919050565b60006020820190508181036000830152611f6d81611d09565b9050919050565b60006020820190508181036000830152611f8d81611d2c565b9050919050565b60006020820190508181036000830152611fad81611d4f565b9050919050565b60006020820190508181036000830152611fcd81611d72565b9050919050565b60006020820190508181036000830152611fed81611d95565b9050919050565b6000602082019050818103600083015261200d81611db8565b9050919050565b6000602082019050818103600083015261202d81611ddb565b9050919050565b6000602082019050818103600083015261204d81611dfe565b9050919050565b60006020820190506120696000830184611e21565b92915050565b600061207961208a565b905061208582826122a0565b919050565b6000604051905090565b600067ffffffffffffffff8211156120af576120ae612378565b5b6120b8826123a7565b9050602081019050919050565b600067ffffffffffffffff8211156120e0576120df612378565b5b6120e9826123a7565b9050602081019050919050565b600081519050919050565b600081519050919050565b600082825260208201905092915050565b600082825260208201905092915050565b600061213982612222565b915061214483612222565b9250827fffffffffffffffffffffffffffffffffffffffffffffffffffffffffffffffff038211156121795761217861231a565b5b828201905092915050565b600061218f82612222565b915061219a83612222565b9250828210156121ad576121ac61231a565b5b828203905092915050565b60006121c382612202565b9050919050565b60008115159050919050565b60007fffffffff0000000000000000000000000000000000000000000000000000000082169050919050565b600073ffffffffffffffffffffffffffffffffffffffff82169050919050565b6000819050919050565b82818337600083830152505050565b60005b8381101561225957808201518184015260208101905061223e565b83811115612268576000848401525b50505050565b6000600282049050600182168061228657607f821691505b6020821081141561229a57612299612349565b5b50919050565b6122a9826123a7565b810181811067ffffffffffffffff821117156122c8576122c7612378565b5b80604052505050565b60006122dc82612222565b91507fffffffffffffffffffffffffffffffffffffffffffffffffffffffffffffffff82141561230f5761230e61231a565b5b600182019050919050565b7f4e487b7100000000000000000000000000000000000000000000000000000000600052601160045260246000fd5b7f4e487b7100000000000000000000000000000000000000000000000000000000600052602260045260246000fd5b7f4e487b7100000000000000000000000000000000000000000000000000000000600052604160045260246000fd5b6000601f19601f8301169050919050565b7f4552433732313a2063616c6c6572206973206e6f7420746f6b656e206f776e6560008201527f72206f7220617070726f76656400000000000000000000000000000000000000602082015250565b7f4552433732313a207472616e7366657220746f206e6f6e20455243373231526560008201527f63656976657220696d706c656d656e7465720000000000000000000000000000602082015250565b7f4552433732313a207472616e736665722066726f6d20696e636f72726563742060008201527f6f776e6572000000000000000000000000000000000000000000000000000000602082015250565b7f4552433732313a20746f6b656e20616c7265616479206d696e74656400000000600082015250565b7f4552433732313a207472616e7366657220746f20746865207a65726f2061646460008201527f7265737300000000000000000000000000000000000000000000000000000000602082015250565b7f4552433732313a20617070726f766520746f2063616c6c657200000000000000600082015250565b7f4552433732313a2061646472657373207a65726f206973206e6f74206120766160008201527f6c6964206f776e65720000000000000000000000000000000000000000000000602082015250565b7f4552433732313a206d696e7420746f20746865207a65726f2061646472657373600082015250565b7f4552433732314d657461646174613a2055524920736574206f66206e6f6e657860008201527f697374656e7420746f6b656e0000000000000000000000000000000000000000602082015250565b7f4552433732313a20696e76616c696420746f6b656e2049440000000000000000600082015250565b7f4552433732313a20617070726f76616c20746f2063757272656e74206f776e6560008201527f7200000000000000000000000000000000000000000000000000000000000000602082015250565b7f4552433732313a20617070726f76652063616c6c6572206973206e6f7420746f60008201527f6b656e206f776e6572206f7220617070726f76656420666f7220616c6c000000602082015250565b6126dd816121b8565b81146126e857600080fd5b50565b6126f4816121ca565b81146126ff57600080fd5b50565b61270b816121d6565b811461271657600080fd5b50565b61272281612222565b811461272d57600080fd5b5056fea26469706673582212208d722d6f6b0087e64b3b4c5df2ab3841c68743725df254fa68df84aacce5d72364736f6c63430008040033",
  "linkReferences": {},
  "deployedLinkReferences": {}
}