{
  "_format": "hh-sol-artifact-1",
  "contractName": "Marketplace",
  "sourceName": "contracts/Marketplace.sol",
  "abi": [
    {
      "inputs": [],
      "stateMutability": "nonpayable",
      "type": "constructor"
    },
    {
      "anonymous": false,
      "inputs": [
        {
          "indexed": true,
          "internalType": "uint256",
          "name": "itemId",
          "type": "uint256"
        },
        {
          "indexed": true,
          "internalType": "address",
          "name": "nftContractAddress",
          "type": "address"
        },
        {
          "indexed": true,
          "internalType": "uint256",
          "name": "tokenId",
          "type": "uint256"
        },
        {
          "indexed": false,
          "internalType": "address",
          "name": "seller",
          "type": "address"
        },
        {
          "indexed": false,
          "internalType": "address",
          "name": "owner",
          "type": "address"
        },
        {
          "indexed": false,
          "internalType": "uint256",
          "name": "price",
          "type": "uint256"
        }
      ],
      "name": "MarketItemListed",
      "type": "event"
    },
    {
      "inputs": [
        {
          "internalType": "uint256",
          "name": "itemId",
          "type": "uint256"
        }
      ],
      "name": "buyMarketItem",
      "outputs": [],
      "stateMutability": "payable",
      "type": "function"
    },
    {
      "inputs": [
        {
          "internalType": "uint256",
          "name": "newPrice",
          "type": "uint256"
        }
      ],
      "name": "changeListingPrice",
      "outputs": [],
      "stateMutability": "nonpayable",
      "type": "function"
    },
    {
      "inputs": [
        {
          "internalType": "uint256",
          "name": "itemId",
          "type": "uint256"
        }
      ],
      "name": "getMarketItem",
      "outputs": [
        {
          "components": [
            {
              "internalType": "uint256",
              "name": "itemId",
              "type": "uint256"
            },
            {
              "internalType": "address",
              "name": "nftContractAddress",
              "type": "address"
            },
            {
              "internalType": "uint256",
              "name": "tokenId",
              "type": "uint256"
            },
            {
              "internalType": "address payable",
              "name": "seller",
              "type": "address"
            },
            {
              "internalType": "address",
              "name": "owner",
              "type": "address"
            },
            {
              "internalType": "uint256",
              "name": "price",
              "type": "uint256"
            },
            {
              "internalType": "bool",
              "name": "isSold",
              "type": "bool"
            },
            {
              "internalType": "bool",
              "name": "isPresent",
              "type": "bool"
            }
          ],
          "internalType": "struct Marketplace.MarketItem",
          "name": "items",
          "type": "tuple"
        }
      ],
      "stateMutability": "view",
      "type": "function"
    },
    {
      "inputs": [],
      "name": "itemCounter",
      "outputs": [
        {
          "internalType": "uint256",
          "name": "",
          "type": "uint256"
        }
      ],
      "stateMutability": "view",
      "type": "function"
    },
    {
      "inputs": [
        {
          "internalType": "address",
          "name": "nftContractAddress",
          "type": "address"
        },
        {
          "internalType": "uint256",
          "name": "tokenId",
          "type": "uint256"
        },
        {
          "internalType": "uint256",
          "name": "price",
          "type": "uint256"
        }
      ],
      "name": "listMarketItem",
      "outputs": [],
      "stateMutability": "payable",
      "type": "function"
    },
    {
      "inputs": [],
      "name": "listingPrice",
      "outputs": [
        {
          "internalType": "uint256",
          "name": "",
          "type": "uint256"
        }
      ],
      "stateMutability": "view",
      "type": "function"
    }
  ],
  "bytecode": "0x608060405234801561001057600080fd5b506000808190555033600160006101000a81548173ffffffffffffffffffffffffffffffffffffffff021916908373ffffffffffffffffffffffffffffffffffffffff160217905550662386f26fc1000060028190555061130e806100766000396000f3fe6080604052600436106100555760003560e01c8063213c4e1a1461005a578063351901c3146100765780636d6d00ed14610092578063ba0f1d9c146100bd578063c78f19f9146100e6578063c7be7a4914610111575b600080fd5b610074600480360381019061006f9190610bbd565b61014e565b005b610090600480360381019061008b9190610c0c565b6104f3565b005b34801561009e57600080fd5b506100a76107d0565b6040516100b49190610fe5565b60405180910390f35b3480156100c957600080fd5b506100e460048036038101906100df9190610c0c565b6107d6565b005b3480156100f257600080fd5b506100fb6108b3565b6040516101089190610fe5565b60405180910390f35b34801561011d57600080fd5b5061013860048036038101906101339190610c0c565b6108b9565b6040516101459190610fc9565b60405180910390f35b6002543414610192576040517f08c379a000000000000000000000000000000000000000000000000000000000815260040161018990610f89565b60405180910390fd5b600081116101d5576040517f08c379a00000000000000000000000000000000000000000000000000000000081526004016101cc90610fa9565b60405180910390fd5b60405180610100016040528060005481526020018473ffffffffffffffffffffffffffffffffffffffff1681526020018381526020013373ffffffffffffffffffffffffffffffffffffffff168152602001600073ffffffffffffffffffffffffffffffffffffffff1681526020018281526020016000151581526020016001151581525060036000805481526020019081526020016000206000820151816000015560208201518160010160006101000a81548173ffffffffffffffffffffffffffffffffffffffff021916908373ffffffffffffffffffffffffffffffffffffffff1602179055506040820151816002015560608201518160030160006101000a81548173ffffffffffffffffffffffffffffffffffffffff021916908373ffffffffffffffffffffffffffffffffffffffff16021790555060808201518160040160006101000a81548173ffffffffffffffffffffffffffffffffffffffff021916908373ffffffffffffffffffffffffffffffffffffffff16021790555060a0820151816005015560c08201518160060160006101000a81548160ff02191690831515021790555060e08201518160060160016101000a81548160ff0219169083151502179055509050508273ffffffffffffffffffffffffffffffffffffffff166323b872dd3330856040518463ffffffff1660e01b81526004016103e193929190610e5f565b600060405180830381600087803b1580156103fb57600080fd5b505af115801561040f573d6000803e3d6000fd5b50505050600160009054906101000a900473ffffffffffffffffffffffffffffffffffffffff1673ffffffffffffffffffffffffffffffffffffffff166108fc6002549081150290604051600060405180830381858888f1935050505015801561047d573d6000803e3d6000fd5b50818373ffffffffffffffffffffffffffffffffffffffff166000547f3ace6c0795583be5a3d695c6d91a02885edf298c6854b9801b4791aa52c08227336000866040516104cd93929190610e5f565b60405180910390a460016000808282546104e7919061101c565b92505081905550505050565b6003600082815260200190815260200160002060060160019054906101000a900460ff16610556576040517f08c379a000000000000000000000000000000000000000000000000000000000815260040161054d90610f49565b60405180910390fd5b600015156003600083815260200190815260200160002060060160009054906101000a900460ff161515146105c0576040517f08c379a00000000000000000000000000000000000000000000000000000000081526004016105b790610f29565b60405180910390fd5b34600360008381526020019081526020016000206005015414610618576040517f08c379a000000000000000000000000000000000000000000000000000000000815260040161060f90610ee9565b60405180910390fd5b60016003600083815260200190815260200160002060060160006101000a81548160ff021916908315150217905550336003600083815260200190815260200160002060040160006101000a81548173ffffffffffffffffffffffffffffffffffffffff021916908373ffffffffffffffffffffffffffffffffffffffff1602179055506003600082815260200190815260200160002060010160009054906101000a900473ffffffffffffffffffffffffffffffffffffffff1673ffffffffffffffffffffffffffffffffffffffff166323b872dd303360036000868152602001908152602001600020600201546040518463ffffffff1660e01b815260040161072593929190610e5f565b600060405180830381600087803b15801561073f57600080fd5b505af1158015610753573d6000803e3d6000fd5b505050506107cd6040518060400160405280601081526020017f4e46542077697468206974656d49642000000000000000000000000000000000815250826040518060400160405280600b81526020017f697320736f6c6420746f2000000000000000000000000000000000000000000081525033610a3d565b50565b60005481565b60008111610819576040517f08c379a000000000000000000000000000000000000000000000000000000000815260040161081090610f09565b60405180910390fd5b600160009054906101000a900473ffffffffffffffffffffffffffffffffffffffff1673ffffffffffffffffffffffffffffffffffffffff163373ffffffffffffffffffffffffffffffffffffffff16146108a9576040517f08c379a00000000000000000000000000000000000000000000000000000000081526004016108a090610f69565b60405180910390fd5b8060028190555050565b60025481565b6108c1610b08565b6003600083815260200190815260200160002060405180610100016040529081600082015481526020016001820160009054906101000a900473ffffffffffffffffffffffffffffffffffffffff1673ffffffffffffffffffffffffffffffffffffffff1673ffffffffffffffffffffffffffffffffffffffff168152602001600282015481526020016003820160009054906101000a900473ffffffffffffffffffffffffffffffffffffffff1673ffffffffffffffffffffffffffffffffffffffff1673ffffffffffffffffffffffffffffffffffffffff1681526020016004820160009054906101000a900473ffffffffffffffffffffffffffffffffffffffff1673ffffffffffffffffffffffffffffffffffffffff1673ffffffffffffffffffffffffffffffffffffffff168152602001600582015481526020016006820160009054906101000a900460ff161515151581526020016006820160019054906101000a900460ff1615151515815250509050919050565b610ad984848484604051602401610a579493929190610e96565b6040516020818303038152906040527f7c4632a4000000000000000000000000000000000000000000000000000000007bffffffffffffffffffffffffffffffffffffffffffffffffffffffff19166020820180517bffffffffffffffffffffffffffffffffffffffffffffffffffffffff8381831617835250505050610adf565b50505050565b60008151905060006a636f6e736f6c652e6c6f679050602083016000808483855afa5050505050565b60405180610100016040528060008152602001600073ffffffffffffffffffffffffffffffffffffffff16815260200160008152602001600073ffffffffffffffffffffffffffffffffffffffff168152602001600073ffffffffffffffffffffffffffffffffffffffff168152602001600081526020016000151581526020016000151581525090565b600081359050610ba2816112aa565b92915050565b600081359050610bb7816112c1565b92915050565b600080600060608486031215610bd257600080fd5b6000610be086828701610b93565b9350506020610bf186828701610ba8565b9250506040610c0286828701610ba8565b9150509250925092565b600060208284031215610c1e57600080fd5b6000610c2c84828501610ba8565b91505092915050565b610c3e81611084565b82525050565b610c4d81611072565b82525050565b610c5c81611072565b82525050565b610c6b81611096565b82525050565b6000610c7c82611000565b610c86818561100b565b9350610c968185602086016110cc565b610c9f8161112e565b840191505092915050565b6000610cb7601a8361100b565b9150610cc28261113f565b602082019050919050565b6000610cda60248361100b565b9150610ce582611168565b604082019050919050565b6000610cfd60148361100b565b9150610d08826111b7565b602082019050919050565b6000610d2060138361100b565b9150610d2b826111e0565b602082019050919050565b6000610d43602b8361100b565b9150610d4e82611209565b604082019050919050565b6000610d66601a8361100b565b9150610d7182611258565b602082019050919050565b6000610d89601c8361100b565b9150610d9482611281565b602082019050919050565b61010082016000820151610db66000850182610e41565b506020820151610dc96020850182610c44565b506040820151610ddc6040850182610e41565b506060820151610def6060850182610c35565b506080820151610e026080850182610c44565b5060a0820151610e1560a0850182610e41565b5060c0820151610e2860c0850182610c62565b5060e0820151610e3b60e0850182610c62565b50505050565b610e4a816110c2565b82525050565b610e59816110c2565b82525050565b6000606082019050610e746000830186610c53565b610e816020830185610c53565b610e8e6040830184610e50565b949350505050565b60006080820190508181036000830152610eb08187610c71565b9050610ebf6020830186610e50565b8181036040830152610ed18185610c71565b9050610ee06060830184610c53565b95945050505050565b60006020820190508181036000830152610f0281610caa565b9050919050565b60006020820190508181036000830152610f2281610ccd565b9050919050565b60006020820190508181036000830152610f4281610cf0565b9050919050565b60006020820190508181036000830152610f6281610d13565b9050919050565b60006020820190508181036000830152610f8281610d36565b9050919050565b60006020820190508181036000830152610fa281610d59565b9050919050565b60006020820190508181036000830152610fc281610d7c565b9050919050565b600061010082019050610fdf6000830184610d9f565b92915050565b6000602082019050610ffa6000830184610e50565b92915050565b600081519050919050565b600082825260208201905092915050565b6000611027826110c2565b9150611032836110c2565b9250827fffffffffffffffffffffffffffffffffffffffffffffffffffffffffffffffff03821115611067576110666110ff565b5b828201905092915050565b600061107d826110a2565b9050919050565b600061108f826110a2565b9050919050565b60008115159050919050565b600073ffffffffffffffffffffffffffffffffffffffff82169050919050565b6000819050919050565b60005b838110156110ea5780820151818401526020810190506110cf565b838111156110f9576000848401525b50505050565b7f4e487b7100000000000000000000000000000000000000000000000000000000600052601160045260246000fd5b6000601f19601f8301169050919050565b7f4d757374207061792074686520636f7272656374207072696365000000000000600082015250565b7f4c697374696e67205072696365206d757374206265206772656174657220746860008201527f616e203000000000000000000000000000000000000000000000000000000000602082015250565b7f4974656d20697320616c726561647920736f6c64000000000000000000000000600082015250565b7f4974656d206973206e6f742070726573656e7400000000000000000000000000600082015250565b7f4f6e6c7920746865206f776e65722063616e206368616e676520746865206c6960008201527f7374696e67207072696365000000000000000000000000000000000000000000602082015250565b7f4d7573742070617920746865206c697374696e67207072696365000000000000600082015250565b7f5072696365206d7573742062652067726561746572207468616e203000000000600082015250565b6112b381611072565b81146112be57600080fd5b50565b6112ca816110c2565b81146112d557600080fd5b5056fea2646970667358221220a2578bfe437ae5f865e6b5d84063d11e52bf4e5ae47df77b2d07e0f404d0be1764736f6c63430008040033",
  "linkReferences": {},
  "deployedLinkReferences": {}
}